{
  "transactions": [
    {
      "hash": "0x2d12a459708da421e5266729206d5a6d3cc6fd0baed8b3110618b345a512ce3e",
      "transactionType": "CALL",
      "contractName": null,
      "contractAddress": "0x425d6033e8495174b0d8c23f29b0ca0938a974cd",
      "function": "updateContractAddresses(address,address,address,address)",
      "arguments": [
        "0x0000000000000000000000000000000000000000",
        "0x0000000000000000000000000000000000000000",
        "0xC891E58C0f7d3D23a26bf1E8433a263b72066577",
        "0x0000000000000000000000000000000000000000"
      ],
      "transaction": {
        "from": "0x7c17f9d9378a2aa5fb98bdc8e3b8aaf3c8eedd71",
        "to": "0x425d6033e8495174b0d8c23f29b0ca0938a974cd",
        "gas": "0xbd08",
        "value": "0x0",
        "input": "0x8a61809c00000000000000000000000000000000000000000000000000000000000000000000000000000000000000000000000000000000000000000000000000000000000000000000000000000000c891e58c0f7d3d23a26bf1e8433a263b720665770000000000000000000000000000000000000000000000000000000000000000",
        "nonce": "0x1b1",
        "chainId": "0x14a34"
      },
      "additionalContracts": [],
      "isFixedGasLimit": false
    }
  ],
  "receipts": [
    {
      "status": "0x1",
      "cumulativeGasUsed": "0x13d10",
      "logs": [],
      "logsBloom": "0x00000000000000000000000000000000000000000000000000000000000000000000000000000000000000000000000000000000000000000000000000000000000000000000000000000000000000000000000000000000000000000000000000000000000000000000000000000000000000000000000000000000000000000000000000000000000000000000000000000000000000000000000000000000000000000000000000000000000000000000000000000000000000000000000000000000000000000000000000000000000000000000000000000000000000000000000000000000000000000000000000000000000000000000000000000000",
      "type": "0x2",
      "transactionHash": "0x2d12a459708da421e5266729206d5a6d3cc6fd0baed8b3110618b345a512ce3e",
      "transactionIndex": "0x1",
      "blockHash": "0x1a7342466ade41e88fddc4d8ff234166bf11ef92fc99eae975bfaabdc156a1f4",
      "blockNumber": "0x1bd6478",
      "gasUsed": "0x88dc",
      "effectiveGasPrice": "0xf4281",
      "from": "0x7c17f9d9378a2aa5fb98bdc8e3b8aaf3c8eedd71",
      "to": "0x425d6033e8495174b0d8c23f29b0ca0938a974cd",
      "contractAddress": null,
      "l1BaseFeeScalar": "0x44d",
      "l1BlobBaseFee": "0x1",
      "l1BlobBaseFeeScalar": "0xa118b",
      "l1Fee": "0x179c29",
      "l1GasPrice": "0xd66eb",
      "l1GasUsed": "0x640"
    }
  ],
  "libraries": [],
  "pending": [],
  "returns": {},
  "timestamp": 1754146767,
  "chain": 84532,
  "commit": "a22ea15"
}