{
  "transactions": [
    {
      "hash": "0x1b53708f397962f80425b8f581ab0036a78eb3f190c3f0be6b8e859c4c3187b4",
      "transactionType": "CALL",
      "contractName": null,
      "contractAddress": "0xc891e58c0f7d3d23a26bf1e8433a263b72066577",
      "function": "grantRole(bytes32,address)",
      "arguments": [
        "0x867fdbeabc590fa9eb3ad37fe7c52978cb25f477fedf93728ff3e535fd40d1ff",
        "0x425d6033e8495174b0D8c23f29b0CA0938a974Cd"
      ],
      "transaction": {
        "from": "0x7c17f9d9378a2aa5fb98bdc8e3b8aaf3c8eedd71",
        "to": "0xc891e58c0f7d3d23a26bf1e8433a263b72066577",
        "gas": "0x12f58",
        "value": "0x0",
        "input": "0x2f2ff15d867fdbeabc590fa9eb3ad37fe7c52978cb25f477fedf93728ff3e535fd40d1ff000000000000000000000000425d6033e8495174b0d8c23f29b0ca0938a974cd",
        "nonce": "0x1c0",
        "chainId": "0x14a34"
      },
      "additionalContracts": [],
      "isFixedGasLimit": false
    }
  ],
  "receipts": [
    {
      "status": "0x1",
      "cumulativeGasUsed": "0x1758f0",
      "logs": [
        {
          "address": "0xc891e58c0f7d3d23a26bf1e8433a263b72066577",
          "topics": [
            "0x2f8788117e7eff1d82e926ec794901d17c78024a50270940304540a733656f0d",
            "0x867fdbeabc590fa9eb3ad37fe7c52978cb25f477fedf93728ff3e535fd40d1ff",
            "0x000000000000000000000000425d6033e8495174b0d8c23f29b0ca0938a974cd",
            "0x0000000000000000000000007c17f9d9378a2aa5fb98bdc8e3b8aaf3c8eedd71"
          ],
          "data": "0x",
          "blockHash": "0xc5d3b3894c2e3befb94d2ddae37eb35ee98f34d0fd1adc62b9e6956005330956",
          "blockNumber": "0x1bd68ae",
          "blockTimestamp": "0x688e303c",
          "transactionHash": "0x1b53708f397962f80425b8f581ab0036a78eb3f190c3f0be6b8e859c4c3187b4",
          "transactionIndex": "0x2",
          "logIndex": "0x0",
          "removed": false
        }
      ],
      "logsBloom": "0x00000004000040000000000000000000000000000000000000000000000000000000000000000000000000020000000040000000000000000000000000040000010000000000000000000000000004000000000000000000000000000000000000000000000000000000000000000000000000000000000020000000000000000000000000000000000000000000000000000000000000000000000000000000000000000000000000000000000000000000000008000000001000000000000000000000000000000000000000000000008000000000000100000000000000000000000000002000000000000000000000000000000000200000000000000020",
      "type": "0x2",
      "transactionHash": "0x1b53708f397962f80425b8f581ab0036a78eb3f190c3f0be6b8e859c4c3187b4",
      "transactionIndex": "0x2",
      "blockHash": "0xc5d3b3894c2e3befb94d2ddae37eb35ee98f34d0fd1adc62b9e6956005330956",
      "blockNumber": "0x1bd68ae",
      "gasUsed": "0xdb9f",
      "effectiveGasPrice": "0xf4281",
      "from": "0x7c17f9d9378a2aa5fb98bdc8e3b8aaf3c8eedd71",
      "to": "0xc891e58c0f7d3d23a26bf1e8433a263b72066577",
      "contractAddress": null,
      "l1BaseFeeScalar": "0x44d",
      "l1BlobBaseFee": "0x1",
      "l1BlobBaseFeeScalar": "0xa118b",
      "l1Fee": "0x33d93f",
      "l1GasPrice": "0x1b4180",
      "l1GasUsed": "0x6bf"
    }
  ],
  "libraries": [],
  "pending": [],
  "returns": {},
  "timestamp": 1754148922,
  "chain": 84532,
  "commit": "a22ea15"
}